{
  "_format": "hh-sol-artifact-1",
  "contractName": "CupcakeOrder",
  "sourceName": "contracts/MyContract.sol",
  "abi": [
    {
      "anonymous": false,
      "inputs": [
        {
          "indexed": false,
          "internalType": "uint256",
          "name": "orderId",
          "type": "uint256"
        },
        {
          "indexed": true,
          "internalType": "address",
          "name": "customer",
          "type": "address"
        }
      ],
      "name": "OrderPlaced",
      "type": "event"
    },
    {
      "inputs": [
        {
          "internalType": "string[]",
          "name": "_flavors",
          "type": "string[]"
        },
        {
          "internalType": "string[][]",
          "name": "_ingredients",
          "type": "string[][]"
        }
      ],
      "name": "addOrder",
      "outputs": [],
      "stateMutability": "nonpayable",
      "type": "function"
    },
    {
      "inputs": [
        {
          "internalType": "address",
          "name": "",
          "type": "address"
        },
        {
          "internalType": "uint256",
          "name": "",
          "type": "uint256"
        }
      ],
      "name": "customerOrders",
      "outputs": [
        {
          "internalType": "uint256",
          "name": "",
          "type": "uint256"
        }
      ],
      "stateMutability": "view",
      "type": "function"
    },
    {
      "inputs": [
        {
          "internalType": "uint256",
          "name": "_orderId",
          "type": "uint256"
        }
      ],
      "name": "getOrder",
      "outputs": [
        {
          "internalType": "string[]",
          "name": "",
          "type": "string[]"
        },
        {
          "internalType": "string[][]",
          "name": "",
          "type": "string[][]"
        },
        {
          "internalType": "address",
          "name": "",
          "type": "address"
        }
      ],
      "stateMutability": "view",
      "type": "function"
    },
    {
      "inputs": [
        {
          "internalType": "address",
          "name": "_customer",
          "type": "address"
        }
      ],
      "name": "getOrdersByCustomer",
      "outputs": [
        {
          "internalType": "uint256[]",
          "name": "",
          "type": "uint256[]"
        }
      ],
      "stateMutability": "view",
      "type": "function"
    },
    {
      "inputs": [],
      "name": "getTotalOrders",
      "outputs": [
        {
          "internalType": "uint256",
          "name": "",
          "type": "uint256"
        }
      ],
      "stateMutability": "view",
      "type": "function"
    },
    {
      "inputs": [
        {
          "internalType": "uint256",
          "name": "",
          "type": "uint256"
        }
      ],
      "name": "orders",
      "outputs": [
        {
          "internalType": "address",
          "name": "customer",
          "type": "address"
        }
      ],
      "stateMutability": "view",
      "type": "function"
    }
  ],
  "bytecode": "0x608060405234801561001057600080fd5b5061160c806100206000396000f3fe608060405234801561001057600080fd5b50600436106100625760003560e01c80631600c6cd14610067578063375f16a71461009757806375ecd05d146100b55780637e1ea7c3146100d1578063a85c38ef14610101578063d09ef24114610131575b600080fd5b610081600480360381019061007c9190610936565b610163565b60405161008e9190610985565b60405180910390f35b61009f610194565b6040516100ac9190610985565b60405180910390f35b6100cf60048036038101906100ca9190610cad565b6101a0565b005b6100eb60048036038101906100e69190610d25565b610392565b6040516100f89190610e10565b60405180910390f35b61011b60048036038101906101169190610e32565b610429565b6040516101289190610e6e565b60405180910390f35b61014b60048036038101906101469190610e32565b610477565b60405161015a93929190611112565b60405180910390f35b6001602052816000526040600020818154811061017f57600080fd5b90600052602060002001600091509150505481565b60008080549050905090565b60008251116101e4576040517f08c379a00000000000000000000000000000000000000000000000000000000081526004016101db906111da565b60405180910390fd5b600060405180606001604052808481526020018381526020013373ffffffffffffffffffffffffffffffffffffffff168152509080600181540180825580915050600190039060005260206000209060030201600090919091909150600082015181600001908051906020019061025c92919061070f565b506020820151816001019080519060200190610279929190610768565b5060408201518160020160006101000a81548173ffffffffffffffffffffffffffffffffffffffff021916908373ffffffffffffffffffffffffffffffffffffffff1602179055505050600060016000805490506102d79190611229565b9050600160003373ffffffffffffffffffffffffffffffffffffffff1673ffffffffffffffffffffffffffffffffffffffff1681526020019081526020016000208190806001815401808255809150506001900390600052602060002001600090919091909150553373ffffffffffffffffffffffffffffffffffffffff167f5222ba5f86a58ad15e7771bd95a809f162ae1762ea7cd66e28a58217341334cc826040516103859190610985565b60405180910390a2505050565b6060600160008373ffffffffffffffffffffffffffffffffffffffff1673ffffffffffffffffffffffffffffffffffffffff16815260200190815260200160002080548060200260200160405190810160405280929190818152602001828054801561041d57602002820191906000526020600020905b815481526020019060010190808311610409575b50505050509050919050565b6000818154811061043957600080fd5b90600052602060002090600302016000915090508060020160009054906101000a900473ffffffffffffffffffffffffffffffffffffffff16905081565b6060806000808054905084106104c2576040517f08c379a00000000000000000000000000000000000000000000000000000000081526004016104b9906112a9565b60405180910390fd5b60008085815481106104d7576104d66112c9565b5b9060005260206000209060030201905080600001816001018260020160009054906101000a900473ffffffffffffffffffffffffffffffffffffffff1682805480602002602001604051908101604052809291908181526020016000905b828210156105e157838290600052602060002001805461055490611327565b80601f016020809104026020016040519081016040528092919081815260200182805461058090611327565b80156105cd5780601f106105a2576101008083540402835291602001916105cd565b820191906000526020600020905b8154815290600101906020018083116105b057829003601f168201915b505050505081526020019060010190610535565b50505050925081805480602002602001604051908101604052809291908181526020016000905b828210156106fb57838290600052602060002001805480602002602001604051908101604052809291908181526020016000905b828210156106e857838290600052602060002001805461065b90611327565b80601f016020809104026020016040519081016040528092919081815260200182805461068790611327565b80156106d45780601f106106a9576101008083540402835291602001916106d4565b820191906000526020600020905b8154815290600101906020018083116106b757829003601f168201915b50505050508152602001906001019061063c565b5050505081526020019060010190610608565b505050509150935093509350509193909250565b828054828255906000526020600020908101928215610757579160200282015b828111156107565782518290816107469190611504565b509160200191906001019061072f565b5b50905061076491906107c8565b5090565b8280548282559060005260206000209081019282156107b7579160200282015b828111156107b65782518290805190602001906107a692919061070f565b5091602001919060010190610788565b5b5090506107c491906107ec565b5090565b5b808211156107e857600081816107df9190610810565b506001016107c9565b5090565b5b8082111561080c57600081816108039190610850565b506001016107ed565b5090565b50805461081c90611327565b6000825580601f1061082e575061084d565b601f01602090049060005260206000209081019061084c9190610871565b5b50565b508054600082559060005260206000209081019061086e91906107c8565b50565b5b8082111561088a576000816000905550600101610872565b5090565b6000604051905090565b600080fd5b600080fd5b600073ffffffffffffffffffffffffffffffffffffffff82169050919050565b60006108cd826108a2565b9050919050565b6108dd816108c2565b81146108e857600080fd5b50565b6000813590506108fa816108d4565b92915050565b6000819050919050565b61091381610900565b811461091e57600080fd5b50565b6000813590506109308161090a565b92915050565b6000806040838503121561094d5761094c610898565b5b600061095b858286016108eb565b925050602061096c85828601610921565b9150509250929050565b61097f81610900565b82525050565b600060208201905061099a6000830184610976565b92915050565b600080fd5b6000601f19601f8301169050919050565b7f4e487b7100000000000000000000000000000000000000000000000000000000600052604160045260246000fd5b6109ee826109a5565b810181811067ffffffffffffffff82111715610a0d57610a0c6109b6565b5b80604052505050565b6000610a2061088e565b9050610a2c82826109e5565b919050565b600067ffffffffffffffff821115610a4c57610a4b6109b6565b5b602082029050602081019050919050565b600080fd5b600080fd5b600067ffffffffffffffff821115610a8257610a816109b6565b5b610a8b826109a5565b9050602081019050919050565b82818337600083830152505050565b6000610aba610ab584610a67565b610a16565b905082815260208101848484011115610ad657610ad5610a62565b5b610ae1848285610a98565b509392505050565b600082601f830112610afe57610afd6109a0565b5b8135610b0e848260208601610aa7565b91505092915050565b6000610b2a610b2584610a31565b610a16565b90508083825260208201905060208402830185811115610b4d57610b4c610a5d565b5b835b81811015610b9457803567ffffffffffffffff811115610b7257610b716109a0565b5b808601610b7f8982610ae9565b85526020850194505050602081019050610b4f565b5050509392505050565b600082601f830112610bb357610bb26109a0565b5b8135610bc3848260208601610b17565b91505092915050565b600067ffffffffffffffff821115610be757610be66109b6565b5b602082029050602081019050919050565b6000610c0b610c0684610bcc565b610a16565b90508083825260208201905060208402830185811115610c2e57610c2d610a5d565b5b835b81811015610c7557803567ffffffffffffffff811115610c5357610c526109a0565b5b808601610c608982610b9e565b85526020850194505050602081019050610c30565b5050509392505050565b600082601f830112610c9457610c936109a0565b5b8135610ca4848260208601610bf8565b91505092915050565b60008060408385031215610cc457610cc3610898565b5b600083013567ffffffffffffffff811115610ce257610ce161089d565b5b610cee85828601610b9e565b925050602083013567ffffffffffffffff811115610d0f57610d0e61089d565b5b610d1b85828601610c7f565b9150509250929050565b600060208284031215610d3b57610d3a610898565b5b6000610d49848285016108eb565b91505092915050565b600081519050919050565b600082825260208201905092915050565b6000819050602082019050919050565b610d8781610900565b82525050565b6000610d998383610d7e565b60208301905092915050565b6000602082019050919050565b6000610dbd82610d52565b610dc78185610d5d565b9350610dd283610d6e565b8060005b83811015610e03578151610dea8882610d8d565b9750610df583610da5565b925050600181019050610dd6565b5085935050505092915050565b60006020820190508181036000830152610e2a8184610db2565b905092915050565b600060208284031215610e4857610e47610898565b5b6000610e5684828501610921565b91505092915050565b610e68816108c2565b82525050565b6000602082019050610e836000830184610e5f565b92915050565b600081519050919050565b600082825260208201905092915050565b6000819050602082019050919050565b600081519050919050565b600082825260208201905092915050565b60005b83811015610eef578082015181840152602081019050610ed4565b60008484015250505050565b6000610f0682610eb5565b610f108185610ec0565b9350610f20818560208601610ed1565b610f29816109a5565b840191505092915050565b6000610f408383610efb565b905092915050565b6000602082019050919050565b6000610f6082610e89565b610f6a8185610e94565b935083602082028501610f7c85610ea5565b8060005b85811015610fb85784840389528151610f998582610f34565b9450610fa483610f48565b925060208a01995050600181019050610f80565b50829750879550505050505092915050565b600081519050919050565b600082825260208201905092915050565b6000819050602082019050919050565b600082825260208201905092915050565b600061101282610e89565b61101c8185610ff6565b93508360208202850161102e85610ea5565b8060005b8581101561106a578484038952815161104b8582610f34565b945061105683610f48565b925060208a01995050600181019050611032565b50829750879550505050505092915050565b60006110888383611007565b905092915050565b6000602082019050919050565b60006110a882610fca565b6110b28185610fd5565b9350836020820285016110c485610fe6565b8060005b8581101561110057848403895281516110e1858261107c565b94506110ec83611090565b925060208a019950506001810190506110c8565b50829750879550505050505092915050565b6000606082019050818103600083015261112c8186610f55565b90508181036020830152611140818561109d565b905061114f6040830184610e5f565b949350505050565b600082825260208201905092915050565b7f4465626520686162657220616c206d656e6f7320756e2063757063616b65206560008201527f6e20656c2070656469646f2e0000000000000000000000000000000000000000602082015250565b60006111c4602c83611157565b91506111cf82611168565b604082019050919050565b600060208201905081810360008301526111f3816111b7565b9050919050565b7f4e487b7100000000000000000000000000000000000000000000000000000000600052601160045260246000fd5b600061123482610900565b915061123f83610900565b9250828203905081811115611257576112566111fa565b5b92915050565b7f456c2049442064656c2070656469646f206e6f2065732076616c69646f2e0000600082015250565b6000611293601e83611157565b915061129e8261125d565b602082019050919050565b600060208201905081810360008301526112c281611286565b9050919050565b7f4e487b7100000000000000000000000000000000000000000000000000000000600052603260045260246000fd5b7f4e487b7100000000000000000000000000000000000000000000000000000000600052602260045260246000fd5b6000600282049050600182168061133f57607f821691505b602082108103611352576113516112f8565b5b50919050565b60008190508160005260206000209050919050565b60006020601f8301049050919050565b600082821b905092915050565b6000600883026113ba7fffffffffffffffffffffffffffffffffffffffffffffffffffffffffffffffff8261137d565b6113c4868361137d565b95508019841693508086168417925050509392505050565b6000819050919050565b60006114016113fc6113f784610900565b6113dc565b610900565b9050919050565b6000819050919050565b61141b836113e6565b61142f61142782611408565b84845461138a565b825550505050565b600090565b611444611437565b61144f818484611412565b505050565b5b818110156114735761146860008261143c565b600181019050611455565b5050565b601f8211156114b85761148981611358565b6114928461136d565b810160208510156114a1578190505b6114b56114ad8561136d565b830182611454565b50505b505050565b600082821c905092915050565b60006114db600019846008026114bd565b1980831691505092915050565b60006114f483836114ca565b9150826002028217905092915050565b61150d82610eb5565b67ffffffffffffffff811115611526576115256109b6565b5b6115308254611327565b61153b828285611477565b600060209050601f83116001811461156e576000841561155c578287015190505b61156685826114e8565b8655506115ce565b601f19841661157c86611358565b60005b828110156115a45784890151825560018201915060208501945060208101905061157f565b868310156115c157848901516115bd601f8916826114ca565b8355505b6001600288020188555050505b50505050505056fea2646970667358221220ecbec204ebfac3bc834a511501bbf1120c4fe2e5f8090417a4b8401069f1a72864736f6c63430008120033",
  "linkReferences": {},
  "deployedLinkReferences": {}
}